:060000000A128A110C280F
:10000800FE00030EF0000A08F1000A128A113E28C9
:100018000A128A110F2883010A128A1113288316DB
:1000280003138601831203138601831603138801C1
:100038008312031388018E018F01901410119015FB
:10004800101290121014831603130715831203134A
:100058000C11831603130C150B178B17831203133C
:1000680017149710171597110E08880038280A12C8
:100078008A110C28831203130C1D4328442847288F
:10008800150886000C1171088A00700E8300FE0E98
:040098007E0E0900CF
:02400E00713F00
:00000001FF
